{
  "contractName": "MultiSigWallet",
  "abi": [
    {
      "inputs": [],
      "stateMutability": "payable",
      "type": "constructor",
      "payable": true
    },
    {
      "inputs": [],
      "name": "nOA",
      "outputs": [
        {
          "internalType": "uint256",
          "name": "",
          "type": "uint256"
        }
      ],
      "stateMutability": "view",
      "type": "function",
      "constant": true
    },
    {
      "inputs": [
        {
          "internalType": "uint256",
          "name": "",
          "type": "uint256"
        }
      ],
      "name": "owners",
      "outputs": [
        {
          "internalType": "address",
          "name": "",
          "type": "address"
        }
      ],
      "stateMutability": "view",
      "type": "function",
      "constant": true
    },
    {
      "inputs": [
        {
          "internalType": "uint256",
          "name": "",
          "type": "uint256"
        }
      ],
      "name": "transactions",
      "outputs": [
        {
          "internalType": "address payable",
          "name": "to",
          "type": "address"
        },
        {
          "internalType": "uint256",
          "name": "amount",
          "type": "uint256"
        },
        {
          "internalType": "uint256",
          "name": "id",
          "type": "uint256"
        },
        {
          "internalType": "uint256",
          "name": "approvals",
          "type": "uint256"
        },
        {
          "internalType": "bool",
          "name": "hasbeensent",
          "type": "bool"
        }
      ],
      "stateMutability": "view",
      "type": "function",
      "constant": true
    },
    {
      "inputs": [],
      "name": "deposit",
      "outputs": [],
      "stateMutability": "payable",
      "type": "function",
      "payable": true
    },
    {
      "inputs": [
        {
          "internalType": "address payable",
          "name": "_to",
          "type": "address"
        },
        {
          "internalType": "uint256",
          "name": "_amount",
          "type": "uint256"
        }
      ],
      "name": "addtransaction",
      "outputs": [],
      "stateMutability": "nonpayable",
      "type": "function"
    },
    {
      "inputs": [
        {
          "internalType": "uint256",
          "name": "_id",
          "type": "uint256"
        }
      ],
      "name": "approve",
      "outputs": [],
      "stateMutability": "payable",
      "type": "function",
      "payable": true
    },
    {
      "inputs": [],
      "name": "getbalance",
      "outputs": [
        {
          "internalType": "uint256",
          "name": "",
          "type": "uint256"
        }
      ],
      "stateMutability": "view",
      "type": "function",
      "constant": true
    }
  ],
  "bytecode": "0x6080604052604051806060016040528073ae8232cd573641e8394829fbb7ea8fa7dce4ba3f73ffffffffffffffffffffffffffffffffffffffff1673ffffffffffffffffffffffffffffffffffffffff16815260200173015a3f4423cf66b32c5fbc670638b6cb74257d7b73ffffffffffffffffffffffffffffffffffffffff1673ffffffffffffffffffffffffffffffffffffffff16815260200173cffa36f10e99a92eac91f11acf3b2fd2e800b8ec73ffffffffffffffffffffffffffffffffffffffff1673ffffffffffffffffffffffffffffffffffffffff1681525060019060036100ef92919061013a565b506002600755336000806101000a81548173ffffffffffffffffffffffffffffffffffffffff021916908373ffffffffffffffffffffffffffffffffffffffff1602179055506101d4565b82600381019282156101a6579160200282015b828111156101a55782518260006101000a81548173ffffffffffffffffffffffffffffffffffffffff021916908373ffffffffffffffffffffffffffffffffffffffff1602179055509160200191906001019061014d565b5b5090506101b391906101b7565b5090565b5b808211156101d05760008160009055506001016101b8565b5090565b610b5b806101e36000396000f3fe6080604052600436106100705760003560e01c80639ace38c21161004e5780639ace38c214610108578063b759f95414610149578063d0e30db014610165578063fa46886d1461016f57610070565b8063025e7c27146100755780634d9b3d5d146100b25780637706e1bb146100dd575b600080fd5b34801561008157600080fd5b5061009c600480360381019061009791906108c6565b610198565b6040516100a9919061096b565b60405180910390f35b3480156100be57600080fd5b506100c76101ce565b6040516100d491906109f9565b60405180910390f35b3480156100e957600080fd5b506100f26101d6565b6040516100ff91906109f9565b60405180910390f35b34801561011457600080fd5b5061012f600480360381019061012a91906108c6565b6101dc565b604051610140959493929190610986565b60405180910390f35b610163600480360381019061015e91906108c6565b61024f565b005b61016d61062d565b005b34801561017b57600080fd5b506101966004803603810190610191919061088a565b61062f565b005b600181600381106101a857600080fd5b016000915054906101000a900473ffffffffffffffffffffffffffffffffffffffff1681565b600047905090565b60075481565b600481815481106101ec57600080fd5b90600052602060002090600502016000915090508060000160009054906101000a900473ffffffffffffffffffffffffffffffffffffffff16908060010154908060020154908060030154908060040160009054906101000a900460ff16905085565b6000805b60038110156103035760018160038110610296577f4e487b7100000000000000000000000000000000000000000000000000000000600052603260045260246000fd5b0160009054906101000a900473ffffffffffffffffffffffffffffffffffffffff1673ffffffffffffffffffffffffffffffffffffffff163373ffffffffffffffffffffffffffffffffffffffff1614156102f057600191505b80806102fb90610a7f565b915050610253565b50600115158115151461031557600080fd5b60001515600560003373ffffffffffffffffffffffffffffffffffffffff1673ffffffffffffffffffffffffffffffffffffffff168152602001908152602001600020600084815260200190815260200160002060009054906101000a900460ff161515146103b9576040517f08c379a00000000000000000000000000000000000000000000000000000000081526004016103b0906109d9565b60405180910390fd5b60011515600560003373ffffffffffffffffffffffffffffffffffffffff1673ffffffffffffffffffffffffffffffffffffffff168152602001908152602001600020600084815260200190815260200160002060009054906101000a9050505060048281548110610454577f4e487b7100000000000000000000000000000000000000000000000000000000600052603260045260246000fd5b9060005260206000209060050201600301600081548092919061047690610a7f565b9190505550600754600483815481106104b8577f4e487b7100000000000000000000000000000000000000000000000000000000600052603260045260246000fd5b9060005260206000209060050201600301541061062957600115156004838154811061050d577f4e487b7100000000000000000000000000000000000000000000000000000000600052603260045260246000fd5b906000526020600020906005020160040160009054906101000a9050505060048281548110610565577f4e487b7100000000000000000000000000000000000000000000000000000000600052603260045260246000fd5b906000526020600020906005020160000160009054906101000a900473ffffffffffffffffffffffffffffffffffffffff1673ffffffffffffffffffffffffffffffffffffffff166108fc600484815481106105ea577f4e487b7100000000000000000000000000000000000000000000000000000000600052603260045260246000fd5b9060005260206000209060050201600101549081150290604051600060405180830381858888f19350505050158015610627573d6000803e3d6000fd5b505b5050565b565b6000805b60038110156106e35760018160038110610676577f4e487b7100000000000000000000000000000000000000000000000000000000600052603260045260246000fd5b0160009054906101000a900473ffffffffffffffffffffffffffffffffffffffff1673ffffffffffffffffffffffffffffffffffffffff163373ffffffffffffffffffffffffffffffffffffffff1614156106d057600191505b80806106db90610a7f565b915050610633565b5060011515811515146106f557600080fd5b60046040518060a001604052808573ffffffffffffffffffffffffffffffffffffffff16815260200184815260200160048054905081526020016000815260200160001515815250908060018154018082558091505060019003906000526020600020906005020160009091909190915060008201518160000160006101000a81548173ffffffffffffffffffffffffffffffffffffffff021916908373ffffffffffffffffffffffffffffffffffffffff16021790555060208201518160010155604082015181600201556060820151816003015560808201518160040160006101000a81548160ff02191690831515021790555050506000600560003373ffffffffffffffffffffffffffffffffffffffff1673ffffffffffffffffffffffffffffffffffffffff1681526020019081526020016000206000600480549050815260200190815260200160002060006101000a81548160ff021916908315150217905550505050565b60008135905061086f81610af7565b92915050565b60008135905061088481610b0e565b92915050565b6000806040838503121561089d57600080fd5b60006108ab85828601610860565b92505060206108bc85828601610875565b9150509250929050565b6000602082840312156108d857600080fd5b60006108e684828501610875565b91505092915050565b6108f881610a37565b82525050565b61090781610a25565b82525050565b61091681610a49565b82525050565b6000610929601683610a14565b91507f796f75206861766520616c726561647920766f746564000000000000000000006000830152602082019050919050565b61096581610a75565b82525050565b600060208201905061098060008301846108fe565b92915050565b600060a08201905061099b60008301886108ef565b6109a8602083018761095c565b6109b5604083018661095c565b6109c2606083018561095c565b6109cf608083018461090d565b9695505050505050565b600060208201905081810360008301526109f28161091c565b9050919050565b6000602082019050610a0e600083018461095c565b92915050565b600082825260208201905092915050565b6000610a3082610a55565b9050919050565b6000610a4282610a55565b9050919050565b60008115159050919050565b600073ffffffffffffffffffffffffffffffffffffffff82169050919050565b6000819050919050565b6000610a8a82610a75565b91507fffffffffffffffffffffffffffffffffffffffffffffffffffffffffffffffff821415610abd57610abc610ac8565b5b600182019050919050565b7f4e487b7100000000000000000000000000000000000000000000000000000000600052601160045260246000fd5b610b0081610a37565b8114610b0b57600080fd5b50565b610b1781610a75565b8114610b2257600080fd5b5056fea26469706673582212205e84d7613fc281b00affa98ef3cfb4d239791b2066c8bf367b21ff0c7649b52f64736f6c63430008000033",
  "immutableReferences": {},
  "source": "//SPDX-License-Identifier: UNLICENCED\r\npragma solidity ^0.8.0;\r\n\r\n//pragma abicoder v2;\r\n\r\ncontract MultiSigWallet {\r\n    address deployer;\r\n    address[3] public owners = [0xaE8232Cd573641E8394829fBB7eA8fa7dcE4bA3F,\r\n                                0x015a3f4423cF66b32c5fbc670638b6Cb74257d7B,\r\n                                0xCffA36F10E99a92EAc91F11aCF3B2FD2E800B8eC];\r\n    modifier onlyowners() {\r\n        bool owner = false;\r\n        for (uint256 i; i < owners.length; i++) {\r\n            if (msg.sender == owners[i]) owner = true;\r\n        }\r\n        require(owner == true);\r\n        _;\r\n    }\r\n\r\n    struct transaction {\r\n        address payable to;\r\n        uint256 amount;\r\n        uint256 id;\r\n        uint256 approvals;\r\n        bool hasbeensent;\r\n    }\r\n    transaction[] public transactions;\r\n\r\n    mapping(address => mapping(uint256 => bool)) addrapproval;\r\n    uint256 aCount;\r\n    uint256 public nOA = 2;\r\n\r\n    constructor(/*uint256 _numberofApprovals, address[] memory _owners*/) payable {\r\n        deployer = msg.sender;\r\n    //    nOA = _numberofApprovals;\r\n    //    owners = _owners;\r\n    }\r\n\r\n    //    receive() external payable {}\r\n    function deposit() public payable {}\r\n\r\n    function addtransaction(address payable _to, uint256 _amount)\r\n        public\r\n        onlyowners\r\n    {\r\n        transactions.push(\r\n            transaction(_to, _amount, transactions.length, 0, false)\r\n        );\r\n        addrapproval[msg.sender][transactions.length] = false;\r\n    }\r\n\r\n    function approve(uint256 _id) public payable onlyowners {\r\n        require(\r\n            addrapproval[msg.sender][_id] == false,\r\n            \"you have already voted\"\r\n        );\r\n        (addrapproval[msg.sender][_id] == true);\r\n        transactions[_id].approvals++;\r\n        if (transactions[_id].approvals >= nOA) {\r\n            transactions[_id].hasbeensent == true;\r\n            transactions[_id].to.transfer(transactions[_id].amount);\r\n        }\r\n    }\r\n\r\n    function getbalance() public view returns (uint256) {\r\n        return address(this).balance;\r\n    }\r\n}\r\n",
  "sourcePath": "C:\\Users\\Aftab\\Desktop\\Multisigwalt\\contracts\\MultiSigWallet.sol",
  "compiler": {
    "name": "solc",
    "version": "0.8.0+commit.c7dfd78e.Emscripten.clang"
  },
  "schemaVersion": "3.4.11",
  "updatedAt": "2023-03-22T11:48:26.878Z",
  "networkType": "ethereum",
  "devdoc": {
    "kind": "dev",
    "methods": {},
    "version": 1
  },
  "userdoc": {
    "kind": "user",
    "methods": {},
    "version": 1
  }
}